{
  "abi": [
    {
      "type": "constructor",
      "inputs": [],
      "stateMutability": "nonpayable"
    },
    {
      "type": "function",
      "name": "AAVE",
      "inputs": [],
      "outputs": [
        {
          "name": "",
          "type": "uint256",
          "internalType": "uint256"
        }
      ],
      "stateMutability": "view"
    },
    {
      "type": "function",
      "name": "AB",
      "inputs": [],
      "outputs": [
        {
          "name": "",
          "type": "uint256",
          "internalType": "uint256"
        }
      ],
      "stateMutability": "view"
    },
    {
      "type": "function",
      "name": "ADA",
      "inputs": [],
      "outputs": [
        {
          "name": "",
          "type": "uint256",
          "internalType": "uint256"
        }
      ],
      "stateMutability": "view"
    },
    {
      "type": "function",
      "name": "AERO",
      "inputs": [],
      "outputs": [
        {
          "name": "",
          "type": "uint256",
          "internalType": "uint256"
        }
      ],
      "stateMutability": "view"
    },
    {
      "type": "function",
      "name": "ALGO",
      "inputs": [],
      "outputs": [
        {
          "name": "",
          "type": "uint256",
          "internalType": "uint256"
        }
      ],
      "stateMutability": "view"
    },
    {
      "type": "function",
      "name": "APT",
      "inputs": [],
      "outputs": [
        {
          "name": "",
          "type": "uint256",
          "internalType": "uint256"
        }
      ],
      "stateMutability": "view"
    },
    {
      "type": "function",
      "name": "ARB",
      "inputs": [],
      "outputs": [
        {
          "name": "",
          "type": "uint256",
          "internalType": "uint256"
        }
      ],
      "stateMutability": "view"
    },
    {
      "type": "function",
      "name": "ASTER",
      "inputs": [],
      "outputs": [
        {
          "name": "",
          "type": "uint256",
          "internalType": "uint256"
        }
      ],
      "stateMutability": "view"
    },
    {
      "type": "function",
      "name": "ATOM",
      "inputs": [],
      "outputs": [
        {
          "name": "",
          "type": "uint256",
          "internalType": "uint256"
        }
      ],
      "stateMutability": "view"
    },
    {
      "type": "function",
      "name": "AVAX",
      "inputs": [],
      "outputs": [
        {
          "name": "",
          "type": "uint256",
          "internalType": "uint256"
        }
      ],
      "stateMutability": "view"
    },
    {
      "type": "function",
      "name": "BCH",
      "inputs": [],
      "outputs": [
        {
          "name": "",
          "type": "uint256",
          "internalType": "uint256"
        }
      ],
      "stateMutability": "view"
    },
    {
      "type": "function",
      "name": "BGB",
      "inputs": [],
      "outputs": [
        {
          "name": "",
          "type": "uint256",
          "internalType": "uint256"
        }
      ],
      "stateMutability": "view"
    },
    {
      "type": "function",
      "name": "BNB",
      "inputs": [],
      "outputs": [
        {
          "name": "",
          "type": "uint256",
          "internalType": "uint256"
        }
      ],
      "stateMutability": "view"
    },
    {
      "type": "function",
      "name": "BONK",
      "inputs": [],
      "outputs": [
        {
          "name": "",
          "type": "uint256",
          "internalType": "uint256"
        }
      ],
      "stateMutability": "view"
    },
    {
      "type": "function",
      "name": "BTC",
      "inputs": [],
      "outputs": [
        {
          "name": "",
          "type": "uint256",
          "internalType": "uint256"
        }
      ],
      "stateMutability": "view"
    },
    {
      "type": "function",
      "name": "CAKE",
      "inputs": [],
      "outputs": [
        {
          "name": "",
          "type": "uint256",
          "internalType": "uint256"
        }
      ],
      "stateMutability": "view"
    },
    {
      "type": "function",
      "name": "CC",
      "inputs": [],
      "outputs": [
        {
          "name": "",
          "type": "uint256",
          "internalType": "uint256"
        }
      ],
      "stateMutability": "view"
    },
    {
      "type": "function",
      "name": "CRO",
      "inputs": [],
      "outputs": [
        {
          "name": "",
          "type": "uint256",
          "internalType": "uint256"
        }
      ],
      "stateMutability": "view"
    },
    {
      "type": "function",
      "name": "CRV",
      "inputs": [],
      "outputs": [
        {
          "name": "",
          "type": "uint256",
          "internalType": "uint256"
        }
      ],
      "stateMutability": "view"
    },
    {
      "type": "function",
      "name": "DAI",
      "inputs": [],
      "outputs": [
        {
          "name": "",
          "type": "uint256",
          "internalType": "uint256"
        }
      ],
      "stateMutability": "view"
    },
    {
      "type": "function",
      "name": "DASH",
      "inputs": [],
      "outputs": [
        {
          "name": "",
          "type": "uint256",
          "internalType": "uint256"
        }
      ],
      "stateMutability": "view"
    },
    {
      "type": "function",
      "name": "DCR",
      "inputs": [],
      "outputs": [
        {
          "name": "",
          "type": "uint256",
          "internalType": "uint256"
        }
      ],
      "stateMutability": "view"
    },
    {
      "type": "function",
      "name": "DOGE",
      "inputs": [],
      "outputs": [
        {
          "name": "",
          "type": "uint256",
          "internalType": "uint256"
        }
      ],
      "stateMutability": "view"
    },
    {
      "type": "function",
      "name": "DOT",
      "inputs": [],
      "outputs": [
        {
          "name": "",
          "type": "uint256",
          "internalType": "uint256"
        }
      ],
      "stateMutability": "view"
    },
    {
      "type": "function",
      "name": "ENA",
      "inputs": [],
      "outputs": [
        {
          "name": "",
          "type": "uint256",
          "internalType": "uint256"
        }
      ],
      "stateMutability": "view"
    },
    {
      "type": "function",
      "name": "ETC",
      "inputs": [],
      "outputs": [
        {
          "name": "",
          "type": "uint256",
          "internalType": "uint256"
        }
      ],
      "stateMutability": "view"
    },
    {
      "type": "function",
      "name": "ETH",
      "inputs": [],
      "outputs": [
        {
          "name": "",
          "type": "uint256",
          "internalType": "uint256"
        }
      ],
      "stateMutability": "view"
    },
    {
      "type": "function",
      "name": "ETHFI",
      "inputs": [],
      "outputs": [
        {
          "name": "",
          "type": "uint256",
          "internalType": "uint256"
        }
      ],
      "stateMutability": "view"
    },
    {
      "type": "function",
      "name": "FDUSD",
      "inputs": [],
      "outputs": [
        {
          "name": "",
          "type": "uint256",
          "internalType": "uint256"
        }
      ],
      "stateMutability": "view"
    },
    {
      "type": "function",
      "name": "FET",
      "inputs": [],
      "outputs": [
        {
          "name": "",
          "type": "uint256",
          "internalType": "uint256"
        }
      ],
      "stateMutability": "view"
    },
    {
      "type": "function",
      "name": "FIL",
      "inputs": [],
      "outputs": [
        {
          "name": "",
          "type": "uint256",
          "internalType": "uint256"
        }
      ],
      "stateMutability": "view"
    },
    {
      "type": "function",
      "name": "FLOKI",
      "inputs": [],
      "outputs": [
        {
          "name": "",
          "type": "uint256",
          "internalType": "uint256"
        }
      ],
      "stateMutability": "view"
    },
    {
      "type": "function",
      "name": "FLR",
      "inputs": [],
      "outputs": [
        {
          "name": "",
          "type": "uint256",
          "internalType": "uint256"
        }
      ],
      "stateMutability": "view"
    },
    {
      "type": "function",
      "name": "GRT",
      "inputs": [],
      "outputs": [
        {
          "name": "",
          "type": "uint256",
          "internalType": "uint256"
        }
      ],
      "stateMutability": "view"
    },
    {
      "type": "function",
      "name": "GT",
      "inputs": [],
      "outputs": [
        {
          "name": "",
          "type": "uint256",
          "internalType": "uint256"
        }
      ],
      "stateMutability": "view"
    },
    {
      "type": "function",
      "name": "HBAR",
      "inputs": [],
      "outputs": [
        {
          "name": "",
          "type": "uint256",
          "internalType": "uint256"
        }
      ],
      "stateMutability": "view"
    },
    {
      "type": "function",
      "name": "HYPE",
      "inputs": [],
      "outputs": [
        {
          "name": "",
          "type": "uint256",
          "internalType": "uint256"
        }
      ],
      "stateMutability": "view"
    },
    {
      "type": "function",
      "name": "ICP",
      "inputs": [],
      "outputs": [
        {
          "name": "",
          "type": "uint256",
          "internalType": "uint256"
        }
      ],
      "stateMutability": "view"
    },
    {
      "type": "function",
      "name": "IMX",
      "inputs": [],
      "outputs": [
        {
          "name": "",
          "type": "uint256",
          "internalType": "uint256"
        }
      ],
      "stateMutability": "view"
    },
    {
      "type": "function",
      "name": "INJ",
      "inputs": [],
      "outputs": [
        {
          "name": "",
          "type": "uint256",
          "internalType": "uint256"
        }
      ],
      "stateMutability": "view"
    },
    {
      "type": "function",
      "name": "IOTA",
      "inputs": [],
      "outputs": [
        {
          "name": "",
          "type": "uint256",
          "internalType": "uint256"
        }
      ],
      "stateMutability": "view"
    },
    {
      "type": "function",
      "name": "IP",
      "inputs": [],
      "outputs": [
        {
          "name": "",
          "type": "uint256",
          "internalType": "uint256"
        }
      ],
      "stateMutability": "view"
    },
    {
      "type": "function",
      "name": "JUP",
      "inputs": [],
      "outputs": [
        {
          "name": "",
          "type": "uint256",
          "internalType": "uint256"
        }
      ],
      "stateMutability": "view"
    },
    {
      "type": "function",
      "name": "KAIA",
      "inputs": [],
      "outputs": [
        {
          "name": "",
          "type": "uint256",
          "internalType": "uint256"
        }
      ],
      "stateMutability": "view"
    },
    {
      "type": "function",
      "name": "KAS",
      "inputs": [],
      "outputs": [
        {
          "name": "",
          "type": "uint256",
          "internalType": "uint256"
        }
      ],
      "stateMutability": "view"
    },
    {
      "type": "function",
      "name": "KCS",
      "inputs": [],
      "outputs": [
        {
          "name": "",
          "type": "uint256",
          "internalType": "uint256"
        }
      ],
      "stateMutability": "view"
    },
    {
      "type": "function",
      "name": "LDO",
      "inputs": [],
      "outputs": [
        {
          "name": "",
          "type": "uint256",
          "internalType": "uint256"
        }
      ],
      "stateMutability": "view"
    },
    {
      "type": "function",
      "name": "LEO",
      "inputs": [],
      "outputs": [
        {
          "name": "",
          "type": "uint256",
          "internalType": "uint256"
        }
      ],
      "stateMutability": "view"
    },
    {
      "type": "function",
      "name": "LINK",
      "inputs": [],
      "outputs": [
        {
          "name": "",
          "type": "uint256",
          "internalType": "uint256"
        }
      ],
      "stateMutability": "view"
    },
    {
      "type": "function",
      "name": "LTC",
      "inputs": [],
      "outputs": [
        {
          "name": "",
          "type": "uint256",
          "internalType": "uint256"
        }
      ],
      "stateMutability": "view"
    },
    {
      "type": "function",
      "name": "M",
      "inputs": [],
      "outputs": [
        {
          "name": "",
          "type": "uint256",
          "internalType": "uint256"
        }
      ],
      "stateMutability": "view"
    },
    {
      "type": "function",
      "name": "MNT",
      "inputs": [],
      "outputs": [
        {
          "name": "",
          "type": "uint256",
          "internalType": "uint256"
        }
      ],
      "stateMutability": "view"
    },
    {
      "type": "function",
      "name": "MORPHO",
      "inputs": [],
      "outputs": [
        {
          "name": "",
          "type": "uint256",
          "internalType": "uint256"
        }
      ],
      "stateMutability": "view"
    },
    {
      "type": "function",
      "name": "MYX",
      "inputs": [],
      "outputs": [
        {
          "name": "",
          "type": "uint256",
          "internalType": "uint256"
        }
      ],
      "stateMutability": "view"
    },
    {
      "type": "function",
      "name": "NEAR",
      "inputs": [],
      "outputs": [
        {
          "name": "",
          "type": "uint256",
          "internalType": "uint256"
        }
      ],
      "stateMutability": "view"
    },
    {
      "type": "function",
      "name": "NEXO",
      "inputs": [],
      "outputs": [
        {
          "name": "",
          "type": "uint256",
          "internalType": "uint256"
        }
      ],
      "stateMutability": "view"
    },
    {
      "type": "function",
      "name": "OKB",
      "inputs": [],
      "outputs": [
        {
          "name": "",
          "type": "uint256",
          "internalType": "uint256"
        }
      ],
      "stateMutability": "view"
    },
    {
      "type": "function",
      "name": "ONDO",
      "inputs": [],
      "outputs": [
        {
          "name": "",
          "type": "uint256",
          "internalType": "uint256"
        }
      ],
      "stateMutability": "view"
    },
    {
      "type": "function",
      "name": "OP",
      "inputs": [],
      "outputs": [
        {
          "name": "",
          "type": "uint256",
          "internalType": "uint256"
        }
      ],
      "stateMutability": "view"
    },
    {
      "type": "function",
      "name": "PAXG",
      "inputs": [],
      "outputs": [
        {
          "name": "",
          "type": "uint256",
          "internalType": "uint256"
        }
      ],
      "stateMutability": "view"
    },
    {
      "type": "function",
      "name": "PENGU",
      "inputs": [],
      "outputs": [
        {
          "name": "",
          "type": "uint256",
          "internalType": "uint256"
        }
      ],
      "stateMutability": "view"
    },
    {
      "type": "function",
      "name": "PEPE",
      "inputs": [],
      "outputs": [
        {
          "name": "",
          "type": "uint256",
          "internalType": "uint256"
        }
      ],
      "stateMutability": "view"
    },
    {
      "type": "function",
      "name": "PI",
      "inputs": [],
      "outputs": [
        {
          "name": "",
          "type": "uint256",
          "internalType": "uint256"
        }
      ],
      "stateMutability": "view"
    },
    {
      "type": "function",
      "name": "POL",
      "inputs": [],
      "outputs": [
        {
          "name": "",
          "type": "uint256",
          "internalType": "uint256"
        }
      ],
      "stateMutability": "view"
    },
    {
      "type": "function",
      "name": "PUMP",
      "inputs": [],
      "outputs": [
        {
          "name": "",
          "type": "uint256",
          "internalType": "uint256"
        }
      ],
      "stateMutability": "view"
    },
    {
      "type": "function",
      "name": "PYUSD",
      "inputs": [],
      "outputs": [
        {
          "name": "",
          "type": "uint256",
          "internalType": "uint256"
        }
      ],
      "stateMutability": "view"
    },
    {
      "type": "function",
      "name": "QNT",
      "inputs": [],
      "outputs": [
        {
          "name": "",
          "type": "uint256",
          "internalType": "uint256"
        }
      ],
      "stateMutability": "view"
    },
    {
      "type": "function",
      "name": "RENDER",
      "inputs": [],
      "outputs": [
        {
          "name": "",
          "type": "uint256",
          "internalType": "uint256"
        }
      ],
      "stateMutability": "view"
    },
    {
      "type": "function",
      "name": "RLUSD",
      "inputs": [],
      "outputs": [
        {
          "name": "",
          "type": "uint256",
          "internalType": "uint256"
        }
      ],
      "stateMutability": "view"
    },
    {
      "type": "function",
      "name": "SEI",
      "inputs": [],
      "outputs": [
        {
          "name": "",
          "type": "uint256",
          "internalType": "uint256"
        }
      ],
      "stateMutability": "view"
    },
    {
      "type": "function",
      "name": "SHIB",
      "inputs": [],
      "outputs": [
        {
          "name": "",
          "type": "uint256",
          "internalType": "uint256"
        }
      ],
      "stateMutability": "view"
    },
    {
      "type": "function",
      "name": "SKY",
      "inputs": [],
      "outputs": [
        {
          "name": "",
          "type": "uint256",
          "internalType": "uint256"
        }
      ],
      "stateMutability": "view"
    },
    {
      "type": "function",
      "name": "SOL",
      "inputs": [],
      "outputs": [
        {
          "name": "",
          "type": "uint256",
          "internalType": "uint256"
        }
      ],
      "stateMutability": "view"
    },
    {
      "type": "function",
      "name": "SPX",
      "inputs": [],
      "outputs": [
        {
          "name": "",
          "type": "uint256",
          "internalType": "uint256"
        }
      ],
      "stateMutability": "view"
    },
    {
      "type": "function",
      "name": "STRK",
      "inputs": [],
      "outputs": [
        {
          "name": "",
          "type": "uint256",
          "internalType": "uint256"
        }
      ],
      "stateMutability": "view"
    },
    {
      "type": "function",
      "name": "STX",
      "inputs": [],
      "outputs": [
        {
          "name": "",
          "type": "uint256",
          "internalType": "uint256"
        }
      ],
      "stateMutability": "view"
    },
    {
      "type": "function",
      "name": "SUI",
      "inputs": [],
      "outputs": [
        {
          "name": "",
          "type": "uint256",
          "internalType": "uint256"
        }
      ],
      "stateMutability": "view"
    },
    {
      "type": "function",
      "name": "TAO",
      "inputs": [],
      "outputs": [
        {
          "name": "",
          "type": "uint256",
          "internalType": "uint256"
        }
      ],
      "stateMutability": "view"
    },
    {
      "type": "function",
      "name": "TEL",
      "inputs": [],
      "outputs": [
        {
          "name": "",
          "type": "uint256",
          "internalType": "uint256"
        }
      ],
      "stateMutability": "view"
    },
    {
      "type": "function",
      "name": "TIA",
      "inputs": [],
      "outputs": [
        {
          "name": "",
          "type": "uint256",
          "internalType": "uint256"
        }
      ],
      "stateMutability": "view"
    },
    {
      "type": "function",
      "name": "TON",
      "inputs": [],
      "outputs": [
        {
          "name": "",
          "type": "uint256",
          "internalType": "uint256"
        }
      ],
      "stateMutability": "view"
    },
    {
      "type": "function",
      "name": "TRUMP",
      "inputs": [],
      "outputs": [
        {
          "name": "",
          "type": "uint256",
          "internalType": "uint256"
        }
      ],
      "stateMutability": "view"
    },
    {
      "type": "function",
      "name": "TRX",
      "inputs": [],
      "outputs": [
        {
          "name": "",
          "type": "uint256",
          "internalType": "uint256"
        }
      ],
      "stateMutability": "view"
    },
    {
      "type": "function",
      "name": "UNI",
      "inputs": [],
      "outputs": [
        {
          "name": "",
          "type": "uint256",
          "internalType": "uint256"
        }
      ],
      "stateMutability": "view"
    },
    {
      "type": "function",
      "name": "USD1",
      "inputs": [],
      "outputs": [
        {
          "name": "",
          "type": "uint256",
          "internalType": "uint256"
        }
      ],
      "stateMutability": "view"
    },
    {
      "type": "function",
      "name": "USDC",
      "inputs": [],
      "outputs": [
        {
          "name": "",
          "type": "uint256",
          "internalType": "uint256"
        }
      ],
      "stateMutability": "view"
    },
    {
      "type": "function",
      "name": "USDG",
      "inputs": [],
      "outputs": [
        {
          "name": "",
          "type": "uint256",
          "internalType": "uint256"
        }
      ],
      "stateMutability": "view"
    },
    {
      "type": "function",
      "name": "USDT",
      "inputs": [],
      "outputs": [
        {
          "name": "",
          "type": "uint256",
          "internalType": "uint256"
        }
      ],
      "stateMutability": "view"
    },
    {
      "type": "function",
      "name": "USDe",
      "inputs": [],
      "outputs": [
        {
          "name": "",
          "type": "uint256",
          "internalType": "uint256"
        }
      ],
      "stateMutability": "view"
    },
    {
      "type": "function",
      "name": "VET",
      "inputs": [],
      "outputs": [
        {
          "name": "",
          "type": "uint256",
          "internalType": "uint256"
        }
      ],
      "stateMutability": "view"
    },
    {
      "type": "function",
      "name": "VIRTUAL",
      "inputs": [],
      "outputs": [
        {
          "name": "",
          "type": "uint256",
          "internalType": "uint256"
        }
      ],
      "stateMutability": "view"
    },
    {
      "type": "function",
      "name": "WLD",
      "inputs": [],
      "outputs": [
        {
          "name": "",
          "type": "uint256",
          "internalType": "uint256"
        }
      ],
      "stateMutability": "view"
    },
    {
      "type": "function",
      "name": "WLFI",
      "inputs": [],
      "outputs": [
        {
          "name": "",
          "type": "uint256",
          "internalType": "uint256"
        }
      ],
      "stateMutability": "view"
    },
    {
      "type": "function",
      "name": "XAUt",
      "inputs": [],
      "outputs": [
        {
          "name": "",
          "type": "uint256",
          "internalType": "uint256"
        }
      ],
      "stateMutability": "view"
    },
    {
      "type": "function",
      "name": "XDC",
      "inputs": [],
      "outputs": [
        {
          "name": "",
          "type": "uint256",
          "internalType": "uint256"
        }
      ],
      "stateMutability": "view"
    },
    {
      "type": "function",
      "name": "XLM",
      "inputs": [],
      "outputs": [
        {
          "name": "",
          "type": "uint256",
          "internalType": "uint256"
        }
      ],
      "stateMutability": "view"
    },
    {
      "type": "function",
      "name": "XMR",
      "inputs": [],
      "outputs": [
        {
          "name": "",
          "type": "uint256",
          "internalType": "uint256"
        }
      ],
      "stateMutability": "view"
    },
    {
      "type": "function",
      "name": "XRP",
      "inputs": [],
      "outputs": [
        {
          "name": "",
          "type": "uint256",
          "internalType": "uint256"
        }
      ],
      "stateMutability": "view"
    },
    {
      "type": "function",
      "name": "XTZ",
      "inputs": [],
      "outputs": [
        {
          "name": "",
          "type": "uint256",
          "internalType": "uint256"
        }
      ],
      "stateMutability": "view"
    },
    {
      "type": "function",
      "name": "ZEC",
      "inputs": [],
      "outputs": [
        {
          "name": "",
          "type": "uint256",
          "internalType": "uint256"
        }
      ],
      "stateMutability": "view"
    },
    {
      "type": "function",
      "name": "lastUpdated",
      "inputs": [
        {
          "name": "",
          "type": "string",
          "internalType": "string"
        }
      ],
      "outputs": [
        {
          "name": "",
          "type": "uint256",
          "internalType": "uint256"
        }
      ],
      "stateMutability": "view"
    },
    {
      "type": "function",
      "name": "setUpdater",
      "inputs": [
        {
          "name": "newUpdater",
          "type": "address",
          "internalType": "address"
        }
      ],
      "outputs": [],
      "stateMutability": "nonpayable"
    },
    {
      "type": "function",
      "name": "supply",
      "inputs": [
        {
          "name": "",
          "type": "string",
          "internalType": "string"
        }
      ],
      "outputs": [
        {
          "name": "",
          "type": "uint256",
          "internalType": "uint256"
        }
      ],
      "stateMutability": "view"
    },
    {
      "type": "function",
      "name": "updateBatch",
      "inputs": [
        {
          "name": "symbols",
          "type": "string[]",
          "internalType": "string[]"
        },
        {
          "name": "supplies",
          "type": "uint256[]",
          "internalType": "uint256[]"
        }
      ],
      "outputs": [],
      "stateMutability": "nonpayable"
    },
    {
      "type": "function",
      "name": "updater",
      "inputs": [],
      "outputs": [
        {
          "name": "",
          "type": "address",
          "internalType": "address"
        }
      ],
      "stateMutability": "view"
    },
    {
      "type": "event",
      "name": "SupplyUpdated",
      "inputs": [
        {
          "name": "symbol",
          "type": "string",
          "indexed": true,
          "internalType": "string"
        },
        {
          "name": "newSupply",
          "type": "uint256",
          "indexed": false,
          "internalType": "uint256"
        },
        {
          "name": "timestamp",
          "type": "uint256",
          "indexed": false,
          "internalType": "uint256"
        }
      ],
      "anonymous": false
    }
  ],
  "bytecode": {
    "object": "0x6080604052348015600e575f5ffd5b503360025f6101000a81548173ffffffffffffffffffffffffffffffffffffffff021916908373ffffffffffffffffffffffffffffffffffffffff160217905550614dd78061005c5f395ff3fe608060405234801561000f575f5ffd5b5060043610610620575f3560e01c8063721361ca11610334578063bd876461116101c1578063d88bba111161010d578063ee93a545116100ab578063f514bf4211610085578063f514bf421461121a578063f614793e14611238578063fc2544c314611256578063fc2f10b51461127457610620565b8063ee93a545146111c0578063f0a5b516146111de578063f2030928146111fc57610620565b8063e0bab4c4116100e7578063e0bab4c414611148578063e24b85e714611166578063e4fbaecb14611184578063e6db0f95146111a257610620565b8063d88bba11146110ee578063de061d661461110c578063df034cd01461112a57610620565b8063d07167ef1161017a578063d2dcfec111610154578063d2dcfec114611076578063d51fdc1014611094578063d5470494146110b2578063d597b634146110d057610620565b8063d07167ef1461101c578063d16095021461103a578063d2948fc81461105857610620565b8063bd87646114610f6a578063bfbba31714610f86578063c54e44eb14610fa4578063c67df71c14610fc2578063c791745514610fe0578063cdfe919d14610ffe57610620565b806393b60eb411610280578063a42a376711610239578063b59f091e11610213578063b59f091e14610ef2578063b8137ddf14610f10578063bb2d5b9014610f2e578063bd22720814610f4c57610620565b8063a42a376714610e98578063a5c978c014610eb6578063b0c5f43414610ed457610620565b806393b60eb414610de6578063945c914214610e0457806398a383d714610e225780639ca6da2e14610e405780639d54f41914610e5e5780639e19789d14610e7a57610620565b80637dcc78f8116102ed578063834d4cd5116102c7578063834d4cd514610d6e57806389a3027114610d8c5780638cf552c614610daa5780639255d52214610dc857610620565b80637dcc78f814610d1457806382db048414610d325780638322fff214610d5057610620565b8063721361ca14610c605780637538326514610c7e57806376e86e7214610c9c578063774256c714610cba57806377802e4714610cd85780637c9c347214610cf657610620565b80633eeddcc2116104b25780635f3d1675116103fe57806368dc7285116103b75780636b23f3e2116103915780636b23f3e214610be85780636b71a1b014610c0657806371e3071914610c24578063720099fe14610c4257610620565b806368dc728514610b7c5780636923a1fd14610b9a578063693f917e14610bca57610620565b80635f3d167514610ac85780635f59baae14610ae65780635fd1af5614610b045780636275ecd814610b2257806364a285fd14610b405780636509e77614610b5e57610620565b8063541bcb761161046b57806358d6ce961161044557806358d6ce9614610a5057806358f7f6d214610a6e5780635d37d15a14610a8c5780635e787f1914610aaa57610620565b8063541bcb76146109f657806357ae3a9f14610a145780635891915514610a3257610620565b80633eeddcc214610942578063443863211461096057806348ccda3c1461097e5780634ca6ef281461099c5780634ed415dc146109ba5780634f2e11fd146109d857610620565b80632792949d1161057157806332980e431161052a578063375ab08311610504578063375ab083146108ca5780633acb5624146108e85780633af2681f146109065780633caf0a9d1461092457610620565b806332980e431461087057806334ff503a1461088e57806336e02950146108ac57610620565b80632792949d146107bc5780632d78d8e5146107da5780632f243a3b146107f85780632f6c8333146108165780632f9f8c131461083457806330d29e591461085257610620565b806316e17852116105de57806318ede0bd116105b857806318ede0bd146107325780631b6b6d2314610750578063233af1b01461076e578063236e4f231461079e57610620565b806316e17852146106d857806318ac335d146106f657806318da56491461071457610620565b8062bbe4891461062457806306e46610146106425780630a29f40e1461066057806311317c391461067e578063126ee0db1461069c5780631691bd6f146106ba575b5f5ffd5b61062c611292565b6040516106399190612377565b60405180910390f35b61064a6112b4565b6040516106579190612377565b60405180910390f35b6106686112d6565b6040516106759190612377565b60405180910390f35b6106866112f8565b6040516106939190612377565b60405180910390f35b6106a461131a565b6040516106b19190612377565b60405180910390f35b6106c261133c565b6040516106cf9190612377565b60405180910390f35b6106e061135e565b6040516106ed9190612377565b60405180910390f35b6106fe611380565b60405161070b9190612377565b60405180910390f35b61071c6113a2565b6040516107299190612377565b60405180910390f35b61073a6113c4565b6040516107479190612377565b60405180910390f35b6107586113e6565b6040516107659190612377565b60405180910390f35b610788600480360381019061078391906124dd565b611408565b6040516107959190612377565b60405180910390f35b6107a6611435565b6040516107b39190612377565b60405180910390f35b6107c4611457565b6040516107d19190612377565b60405180910390f35b6107e2611479565b6040516107ef9190612377565b60405180910390f35b61080061149b565b60405161080d9190612377565b60405180910390f35b61081e6114bd565b60405161082b9190612377565b60405180910390f35b61083c6114df565b6040516108499190612377565b60405180910390f35b61085a611501565b6040516108679190612377565b60405180910390f35b610878611523565b6040516108859190612377565b60405180910390f35b610896611545565b6040516108a39190612377565b60405180910390f35b6108b4611567565b6040516108c19190612377565b60405180910390f35b6108d2611589565b6040516108df9190612377565b60405180910390f35b6108f06115ab565b6040516108fd9190612377565b60405180910390f35b61090e6115cd565b60405161091b9190612377565b60405180910390f35b61092c6115ef565b6040516109399190612377565b60405180910390f35b61094a611611565b6040516109579190612377565b60405180910390f35b610968611633565b6040516109759190612377565b60405180910390f35b610986611655565b6040516109939190612377565b60405180910390f35b6109a4611677565b6040516109b19190612377565b60405180910390f35b6109c2611699565b6040516109cf9190612377565b60405180910390f35b6109e06116bb565b6040516109ed9190612377565b60405180910390f35b6109fe6116dd565b604051610a0b9190612377565b60405180910390f35b610a1c6116ff565b604051610a299190612377565b60405180910390f35b610a3a611721565b604051610a479190612377565b60405180910390f35b610a58611743565b604051610a659190612377565b60405180910390f35b610a76611765565b604051610a839190612377565b60405180910390f35b610a94611787565b604051610aa19190612377565b60405180910390f35b610ab26117a9565b604051610abf9190612377565b60405180910390f35b610ad06117cb565b604051610add9190612377565b60405180910390f35b610aee6117ed565b604051610afb9190612377565b60405180910390f35b610b0c61180f565b604051610b199190612377565b60405180910390f35b610b2a611831565b604051610b379190612377565b60405180910390f35b610b48611853565b604051610b559190612377565b60405180910390f35b610b66611875565b604051610b739190612377565b60405180910390f35b610b84611897565b604051610b919190612377565b60405180910390f35b610bb46004803603810190610baf91906124dd565b6118b9565b604051610bc19190612377565b60405180910390f35b610bd26118e5565b604051610bdf9190612377565b60405180910390f35b610bf0611907565b604051610bfd9190612377565b60405180910390f35b610c0e611929565b604051610c1b9190612377565b60405180910390f35b610c2c61194b565b604051610c399190612377565b60405180910390f35b610c4a61196d565b604051610c579190612377565b60405180910390f35b610c6861198f565b604051610c759190612377565b60405180910390f35b610c866119b1565b604051610c939190612377565b60405180910390f35b610ca46119d3565b604051610cb19190612377565b60405180910390f35b610cc26119f5565b604051610ccf9190612377565b60405180910390f35b610ce0611a17565b604051610ced9190612377565b60405180910390f35b610cfe611a39565b604051610d0b9190612377565b60405180910390f35b610d1c611a5b565b604051610d299190612377565b60405180910390f35b610d3a611a7d565b604051610d479190612377565b60405180910390f35b610d58611a9f565b604051610d659190612377565b60405180910390f35b610d76611ac1565b604051610d839190612377565b60405180910390f35b610d94611ae3565b604051610da19190612377565b60405180910390f35b610db2611b05565b604051610dbf9190612377565b60405180910390f35b610dd0611b27565b604051610ddd9190612377565b60405180910390f35b610dee611b49565b604051610dfb9190612377565b60405180910390f35b610e0c611b6b565b604051610e199190612377565b60405180910390f35b610e2a611b8d565b604051610e379190612377565b60405180910390f35b610e48611baf565b604051610e559190612377565b60405180910390f35b610e786004803603810190610e73919061257e565b611bd1565b005b610e82611ca3565b604051610e8f9190612377565b60405180910390f35b610ea0611cc5565b604051610ead9190612377565b60405180910390f35b610ebe611ce7565b604051610ecb9190612377565b60405180910390f35b610edc611d09565b604051610ee99190612377565b60405180910390f35b610efa611d2b565b604051610f079190612377565b60405180910390f35b610f18611d4d565b604051610f259190612377565b60405180910390f35b610f36611d6f565b604051610f439190612377565b60405180910390f35b610f54611d91565b604051610f619190612377565b60405180910390f35b610f846004803603810190610f7f919061265b565b611db3565b005b610f8e611fe8565b604051610f9b9190612377565b60405180910390f35b610fac61200a565b604051610fb99190612377565b60405180910390f35b610fca61202c565b604051610fd79190612377565b60405180910390f35b610fe861204e565b604051610ff59190612377565b60405180910390f35b611006612070565b6040516110139190612377565b60405180910390f35b611024612092565b6040516110319190612377565b60405180910390f35b6110426120b4565b60405161104f9190612377565b60405180910390f35b6110606120d6565b60405161106d9190612377565b60405180910390f35b61107e6120f8565b60405161108b9190612377565b60405180910390f35b61109c61211a565b6040516110a99190612377565b60405180910390f35b6110ba61213c565b6040516110c79190612377565b60405180910390f35b6110d861215e565b6040516110e59190612377565b60405180910390f35b6110f6612180565b6040516111039190612377565b60405180910390f35b6111146121a2565b6040516111219190612377565b60405180910390f35b6111326121c4565b60405161113f91906126e8565b60405180910390f35b6111506121e9565b60405161115d9190612377565b60405180910390f35b61116e61220b565b60405161117b9190612377565b60405180910390f35b61118c61222d565b6040516111999190612377565b60405180910390f35b6111aa61224f565b6040516111b79190612377565b60405180910390f35b6111c8612271565b6040516111d59190612377565b60405180910390f35b6111e6612293565b6040516111f39190612377565b60405180910390f35b6112046122b5565b6040516112119190612377565b60405180910390f35b6112226122d7565b60405161122f9190612377565b60405180910390f35b6112406122f9565b60405161124d9190612377565b60405180910390f35b61125e61231b565b60405161126b9190612377565b60405180910390f35b61127c61233d565b6040516112899190612377565b60405180910390f35b5f5f6040516112a090612755565b908152602001604051809103902054905090565b5f5f6040516112c2906127b3565b908152602001604051809103902054905090565b5f5f6040516112e490612811565b908152602001604051809103902054905090565b5f5f6040516113069061286f565b908152602001604051809103902054905090565b5f5f604051611328906128cd565b908152602001604051809103902054905090565b5f5f60405161134a9061292b565b908152602001604051809103902054905090565b5f5f60405161136c90612989565b908152602001604051809103902054905090565b5f5f60405161138e906129e7565b908152602001604051809103902054905090565b5f5f6040516113b090612a45565b908152602001604051809103902054905090565b5f5f6040516113d290612aa3565b908152602001604051809103902054905090565b5f5f6040516113f490612b01565b908152602001604051809103902054905090565b6001818051602081018201805184825260208301602085012081835280955050505050505f915090505481565b5f5f60405161144390612b5f565b908152602001604051809103902054905090565b5f5f60405161146590612bbd565b908152602001604051809103902054905090565b5f5f60405161148790612c1b565b908152602001604051809103902054905090565b5f5f6040516114a990612c79565b908152602001604051809103902054905090565b5f5f6040516114cb90612cd7565b908152602001604051809103902054905090565b5f5f6040516114ed90612d35565b908152602001604051809103902054905090565b5f5f60405161150f90612d93565b908152602001604051809103902054905090565b5f5f60405161153190612df1565b908152602001604051809103902054905090565b5f5f60405161155390612e4f565b908152602001604051809103902054905090565b5f5f60405161157590612ead565b908152602001604051809103902054905090565b5f5f60405161159790612f0b565b908152602001604051809103902054905090565b5f5f6040516115b990612f69565b908152602001604051809103902054905090565b5f5f6040516115db90612fc7565b908152602001604051809103902054905090565b5f5f6040516115fd90613025565b908152602001604051809103902054905090565b5f5f60405161161f90613083565b908152602001604051809103902054905090565b5f5f604051611641906130e1565b908152602001604051809103902054905090565b5f5f6040516116639061313f565b908152602001604051809103902054905090565b5f5f6040516116859061319d565b908152602001604051809103902054905090565b5f5f6040516116a7906131fb565b908152602001604051809103902054905090565b5f5f6040516116c990613259565b908152602001604051809103902054905090565b5f5f6040516116eb906132b7565b908152602001604051809103902054905090565b5f5f60405161170d90613315565b908152602001604051809103902054905090565b5f5f60405161172f90613373565b908152602001604051809103902054905090565b5f5f604051611751906133d1565b908152602001604051809103902054905090565b5f5f6040516117739061342f565b908152602001604051809103902054905090565b5f5f6040516117959061348d565b908152602001604051809103902054905090565b5f5f6040516117b7906134eb565b908152602001604051809103902054905090565b5f5f6040516117d990613549565b908152602001604051809103902054905090565b5f5f6040516117fb906135a7565b908152602001604051809103902054905090565b5f5f60405161181d90613605565b908152602001604051809103902054905090565b5f5f60405161183f90613663565b908152602001604051809103902054905090565b5f5f604051611861906136c1565b908152602001604051809103902054905090565b5f5f6040516118839061371f565b908152602001604051809103902054905090565b5f5f6040516118a59061377d565b908152602001604051809103902054905090565b5f818051602081018201805184825260208301602085012081835280955050505050505f915090505481565b5f5f6040516118f3906137db565b908152602001604051809103902054905090565b5f5f60405161191590613839565b908152602001604051809103902054905090565b5f5f60405161193790613897565b908152602001604051809103902054905090565b5f5f604051611959906138f5565b908152602001604051809103902054905090565b5f5f60405161197b90613953565b908152602001604051809103902054905090565b5f5f60405161199d906139b1565b908152602001604051809103902054905090565b5f5f6040516119bf90613a0f565b908152602001604051809103902054905090565b5f5f6040516119e190613a6d565b908152602001604051809103902054905090565b5f5f604051611a0390613acb565b908152602001604051809103902054905090565b5f5f604051611a2590613b29565b908152602001604051809103902054905090565b5f5f604051611a4790613b87565b908152602001604051809103902054905090565b5f5f604051611a6990613be5565b908152602001604051809103902054905090565b5f5f604051611a8b90613c43565b908152602001604051809103902054905090565b5f5f604051611aad90613ca1565b908152602001604051809103902054905090565b5f5f604051611acf90613cff565b908152602001604051809103902054905090565b5f5f604051611af190613d5d565b908152602001604051809103902054905090565b5f5f604051611b1390613dbb565b908152602001604051809103902054905090565b5f5f604051611b3590613e19565b908152602001604051809103902054905090565b5f5f604051611b5790613e77565b908152602001604051809103902054905090565b5f5f604051611b7990613ed5565b908152602001604051809103902054905090565b5f5f604051611b9b90613f33565b908152602001604051809103902054905090565b5f5f604051611bbd90613f91565b908152602001604051809103902054905090565b60025f9054906101000a900473ffffffffffffffffffffffffffffffffffffffff1673ffffffffffffffffffffffffffffffffffffffff163373ffffffffffffffffffffffffffffffffffffffff1614611c60576040517f08c379a0000000000000000000000000000000000000000000000000000000008152600401611c5790613fff565b60405180910390fd5b8060025f6101000a81548173ffffffffffffffffffffffffffffffffffffffff021916908373ffffffffffffffffffffffffffffffffffffffff16021790555050565b5f5f604051611cb190614067565b908152602001604051809103902054905090565b5f5f604051611cd3906140c5565b908152602001604051809103902054905090565b5f5f604051611cf590614123565b908152602001604051809103902054905090565b5f5f604051611d1790614181565b908152602001604051809103902054905090565b5f5f604051611d39906141df565b908152602001604051809103902054905090565b5f5f604051611d5b9061423d565b908152602001604051809103902054905090565b5f5f604051611d7d9061429b565b908152602001604051809103902054905090565b5f5f604051611d9f906142f9565b908152602001604051809103902054905090565b60025f9054906101000a900473ffffffffffffffffffffffffffffffffffffffff1673ffffffffffffffffffffffffffffffffffffffff163373ffffffffffffffffffffffffffffffffffffffff1614611e42576040517f08c379a0000000000000000000000000000000000000000000000000000000008152600401611e3990613fff565b60405180910390fd5b818190508484905014611e8a576040517f08c379a0000000000000000000000000000000000000000000000000000000008152600401611e8190614357565b60405180910390fd5b5f4290505f5f90505b85859050811015611fe057838382818110611eb157611eb0614375565b5b905060200201355f878784818110611ecc57611ecb614375565b5b9050602002810190611ede91906143ae565b604051611eec929190614434565b908152602001604051809103902081905550816001878784818110611f1457611f13614375565b5b9050602002810190611f2691906143ae565b604051611f34929190614434565b908152602001604051809103902081905550858582818110611f5957611f58614375565b5b9050602002810190611f6b91906143ae565b604051611f79929190614434565b60405180910390207f7e93b55a43c18ea53cf7fc6edfe4a6be7fcfae70213d1c785c65cd77a7ecdaf7858584818110611fb557611fb4614375565b5b9050602002013584604051611fcb92919061444c565b60405180910390a28080600101915050611e93565b505050505050565b5f5f604051611ff6906144bd565b908152602001604051809103902054905090565b5f5f6040516120189061451b565b908152602001604051809103902054905090565b5f5f60405161203a90614579565b908152602001604051809103902054905090565b5f5f60405161205c906145d7565b908152602001604051809103902054905090565b5f5f60405161207e90614635565b908152602001604051809103902054905090565b5f5f6040516120a090614693565b908152602001604051809103902054905090565b5f5f6040516120c2906146f1565b908152602001604051809103902054905090565b5f5f6040516120e49061474f565b908152602001604051809103902054905090565b5f5f604051612106906147ad565b908152602001604051809103902054905090565b5f5f6040516121289061480b565b908152602001604051809103902054905090565b5f5f60405161214a90614869565b908152602001604051809103902054905090565b5f5f60405161216c906148c7565b908152602001604051809103902054905090565b5f5f60405161218e90614925565b908152602001604051809103902054905090565b5f5f6040516121b090614983565b908152602001604051809103902054905090565b60025f9054906101000a900473ffffffffffffffffffffffffffffffffffffffff1681565b5f5f6040516121f7906149e1565b908152602001604051809103902054905090565b5f5f60405161221990614a3f565b908152602001604051809103902054905090565b5f5f60405161223b90614a9d565b908152602001604051809103902054905090565b5f5f60405161225d90614afb565b908152602001604051809103902054905090565b5f5f60405161227f90614b59565b908152602001604051809103902054905090565b5f5f6040516122a190614bb7565b908152602001604051809103902054905090565b5f5f6040516122c390614c15565b908152602001604051809103902054905090565b5f5f6040516122e590614c73565b908152602001604051809103902054905090565b5f5f60405161230790614cd1565b908152602001604051809103902054905090565b5f5f60405161232990614d2f565b908152602001604051809103902054905090565b5f5f60405161234b90614d8d565b908152602001604051809103902054905090565b5f819050919050565b6123718161235f565b82525050565b5f60208201905061238a5f830184612368565b92915050565b5f604051905090565b5f5ffd5b5f5ffd5b5f5ffd5b5f5ffd5b5f601f19601f8301169050919050565b7f4e487b71000000000000000000000000000000000000000000000000000000005f52604160045260245ffd5b6123ef826123a9565b810181811067ffffffffffffffff8211171561240e5761240d6123b9565b5b80604052505050565b5f612420612390565b905061242c82826123e6565b919050565b5f67ffffffffffffffff82111561244b5761244a6123b9565b5b612454826123a9565b9050602081019050919050565b828183375f83830152505050565b5f61248161247c84612431565b612417565b90508281526020810184848401111561249d5761249c6123a5565b5b6124a8848285612461565b509392505050565b5f82601f8301126124c4576124c36123a1565b5b81356124d484826020860161246f565b91505092915050565b5f602082840312156124f2576124f1612399565b5b5f82013567ffffffffffffffff81111561250f5761250e61239d565b5b61251b848285016124b0565b91505092915050565b5f73ffffffffffffffffffffffffffffffffffffffff82169050919050565b5f61254d82612524565b9050919050565b61255d81612543565b8114612567575f5ffd5b50565b5f8135905061257881612554565b92915050565b5f6020828403121561259357612592612399565b5b5f6125a08482850161256a565b91505092915050565b5f5ffd5b5f5ffd5b5f5f83601f8401126125c6576125c56123a1565b5b8235905067ffffffffffffffff8111156125e3576125e26125a9565b5b6020830191508360208202830111156125ff576125fe6125ad565b5b9250929050565b5f5f83601f84011261261b5761261a6123a1565b5b8235905067ffffffffffffffff811115612638576126376125a9565b5b602083019150836020820283011115612654576126536125ad565b5b9250929050565b5f5f5f5f6040858703121561267357612672612399565b5b5f85013567ffffffffffffffff8111156126905761268f61239d565b5b61269c878288016125b1565b9450945050602085013567ffffffffffffffff8111156126bf576126be61239d565b5b6126cb87828801612606565b925092505092959194509250565b6126e281612543565b82525050565b5f6020820190506126fb5f8301846126d9565b92915050565b5f81905092915050565b7f47525400000000000000000000000000000000000000000000000000000000005f82015250565b5f61273f600383612701565b915061274a8261270b565b600382019050919050565b5f61275f82612733565b9150819050919050565b7f534f4c00000000000000000000000000000000000000000000000000000000005f82015250565b5f61279d600383612701565b91506127a882612769565b600382019050919050565b5f6127bd82612791565b9150819050919050565b7f50490000000000000000000000000000000000000000000000000000000000005f82015250565b5f6127fb600283612701565b9150612806826127c7565b600282019050919050565b5f61281b826127ef565b9150819050919050565b7f46445553440000000000000000000000000000000000000000000000000000005f82015250565b5f612859600583612701565b915061286482612825565b600582019050919050565b5f6128798261284d565b9150819050919050565b7f53554900000000000000000000000000000000000000000000000000000000005f82015250565b5f6128b7600383612701565b91506128c282612883565b600382019050919050565b5f6128d7826128ab565b9150819050919050565b7f4145524f000000000000000000000000000000000000000000000000000000005f82015250565b5f612915600483612701565b9150612920826128e1565b600482019050919050565b5f61293582612909565b9150819050919050565b7f54414f00000000000000000000000000000000000000000000000000000000005f82015250565b5f612973600383612701565b915061297e8261293f565b600382019050919050565b5f61299382612967565b9150819050919050565b7f52454e44455200000000000000000000000000000000000000000000000000005f82015250565b5f6129d1600683612701565b91506129dc8261299d565b600682019050919050565b5f6129f1826129c5565b9150819050919050565b7f49500000000000000000000000000000000000000000000000000000000000005f82015250565b5f612a2f600283612701565b9150612a3a826129fb565b600282019050919050565b5f612a4f82612a23565b9150819050919050565b7f53545800000000000000000000000000000000000000000000000000000000005f82015250565b5f612a8d600383612701565b9150612a9882612a59565b600382019050919050565b5f612aad82612a81565b9150819050919050565b7f4c494e4b000000000000000000000000000000000000000000000000000000005f82015250565b5f612aeb600483612701565b9150612af682612ab7565b600482019050919050565b5f612b0b82612adf565b9150819050919050565b7f41444100000000000000000000000000000000000000000000000000000000005f82015250565b5f612b49600383612701565b9150612b5482612b15565b600382019050919050565b5f612b6982612b3d565b9150819050919050565b7f42544300000000000000000000000000000000000000000000000000000000005f82015250565b5f612ba7600383612701565b9150612bb282612b73565b600382019050919050565b5f612bc782612b9b565b9150819050919050565b7f5452554d500000000000000000000000000000000000000000000000000000005f82015250565b5f612c05600583612701565b9150612c1082612bd1565b600582019050919050565b5f612c2582612bf9565b9150819050919050565b7f58415574000000000000000000000000000000000000000000000000000000005f82015250565b5f612c63600483612701565b9150612c6e82612c2f565b600482019050919050565b5f612c8382612c57565b9150819050919050565b7f45544846490000000000000000000000000000000000000000000000000000005f82015250565b5f612cc1600583612701565b9150612ccc82612c8d565b600582019050919050565b5f612ce182612cb5565b9150819050919050565b7f464c4f4b490000000000000000000000000000000000000000000000000000005f82015250565b5f612d1f600583612701565b9150612d2a82612ceb565b600582019050919050565b5f612d3f82612d13565b9150819050919050565b7f584d5200000000000000000000000000000000000000000000000000000000005f82015250565b5f612d7d600383612701565b9150612d8882612d49565b600382019050919050565b5f612d9d82612d71565b9150819050919050565b7f4e454152000000000000000000000000000000000000000000000000000000005f82015250565b5f612ddb600483612701565b9150612de682612da7565b600482019050919050565b5f612dfb82612dcf565b9150819050919050565b7f494d5800000000000000000000000000000000000000000000000000000000005f82015250565b5f612e39600383612701565b9150612e4482612e05565b600382019050919050565b5f612e5982612e2d565b9150819050919050565b7f444f5400000000000000000000000000000000000000000000000000000000005f82015250565b5f612e97600383612701565b9150612ea282612e63565b600382019050919050565b5f612eb782612e8b565b9150819050919050565b7f41420000000000000000000000000000000000000000000000000000000000005f82015250565b5f612ef5600283612701565b9150612f0082612ec1565b600282019050919050565b5f612f1582612ee9565b9150819050919050565b7f4d4f5250484f00000000000000000000000000000000000000000000000000005f82015250565b5f612f53600683612701565b9150612f5e82612f1f565b600682019050919050565b5f612f7382612f47565b9150819050919050565b7f58525000000000000000000000000000000000000000000000000000000000005f82015250565b5f612fb1600383612701565b9150612fbc82612f7d565b600382019050919050565b5f612fd182612fa5565b9150819050919050565b7f414c474f000000000000000000000000000000000000000000000000000000005f82015250565b5f61300f600483612701565b915061301a82612fdb565b600482019050919050565b5f61302f82613003565b9150819050919050565b7f4e45584f000000000000000000000000000000000000000000000000000000005f82015250565b5f61306d600483612701565b915061307882613039565b600482019050919050565b5f61308d82613061565b9150819050919050565b7f55534431000000000000000000000000000000000000000000000000000000005f82015250565b5f6130cb600483612701565b91506130d682613097565b600482019050919050565b5f6130eb826130bf565b9150819050919050565b7f41415645000000000000000000000000000000000000000000000000000000005f82015250565b5f613129600483612701565b9150613134826130f5565b600482019050919050565b5f6131498261311d565b9150819050919050565b7f43414b45000000000000000000000000000000000000000000000000000000005f82015250565b5f613187600483612701565b915061319282613153565b600482019050919050565b5f6131a78261317b565b9150819050919050565b7f4b414941000000000000000000000000000000000000000000000000000000005f82015250565b5f6131e5600483612701565b91506131f0826131b1565b600482019050919050565b5f613205826131d9565b9150819050919050565b7f50554d50000000000000000000000000000000000000000000000000000000005f82015250565b5f613243600483612701565b915061324e8261320f565b600482019050919050565b5f61326382613237565b9150819050919050565b7f554e4900000000000000000000000000000000000000000000000000000000005f82015250565b5f6132a1600383612701565b91506132ac8261326d565b600382019050919050565b5f6132c182613295565b9150819050919050565b7f55534447000000000000000000000000000000000000000000000000000000005f82015250565b5f6132ff600483612701565b915061330a826132cb565b600482019050919050565b5f61331f826132f3565b9150819050919050565b7f444f4745000000000000000000000000000000000000000000000000000000005f82015250565b5f61335d600483612701565b915061336882613329565b600482019050919050565b5f61337d82613351565b9150819050919050565b7f56455400000000000000000000000000000000000000000000000000000000005f82015250565b5f6133bb600383612701565b91506133c682613387565b600382019050919050565b5f6133db826133af565b9150819050919050565b7f424e4200000000000000000000000000000000000000000000000000000000005f82015250565b5f613419600383612701565b9150613424826133e5565b600382019050919050565b5f6134398261340d565b9150819050919050565b7f4b415300000000000000000000000000000000000000000000000000000000005f82015250565b5f613477600383612701565b915061348282613443565b600382019050919050565b5f6134978261346b565b9150819050919050565b7f574c4649000000000000000000000000000000000000000000000000000000005f82015250565b5f6134d5600483612701565b91506134e0826134a1565b600482019050919050565b5f6134f5826134c9565b9150819050919050565b7f504f4c00000000000000000000000000000000000000000000000000000000005f82015250565b5f613533600383612701565b915061353e826134ff565b600382019050919050565b5f61355382613527565b9150819050919050565b7f584c4d00000000000000000000000000000000000000000000000000000000005f82015250565b5f613591600383612701565b915061359c8261355d565b600382019050919050565b5f6135b182613585565b9150819050919050565b7f42434800000000000000000000000000000000000000000000000000000000005f82015250565b5f6135ef600383612701565b91506135fa826135bb565b600382019050919050565b5f61360f826135e3565b9150819050919050565b7f4f4b4200000000000000000000000000000000000000000000000000000000005f82015250565b5f61364d600383612701565b915061365882613619565b600382019050919050565b5f61366d82613641565b9150819050919050565b7f41524200000000000000000000000000000000000000000000000000000000005f82015250565b5f6136ab600383612701565b91506136b682613677565b600382019050919050565b5f6136cb8261369f565b9150819050919050565b7f43430000000000000000000000000000000000000000000000000000000000005f82015250565b5f613709600283612701565b9150613714826136d5565b600282019050919050565b5f613729826136fd565b9150819050919050565b7f524c5553440000000000000000000000000000000000000000000000000000005f82015250565b5f613767600583612701565b915061377282613733565b600582019050919050565b5f6137878261375b565b9150819050919050565b7f4d000000000000000000000000000000000000000000000000000000000000005f82015250565b5f6137c5600183612701565b91506137d082613791565b600182019050919050565b5f6137e5826137b9565b9150819050919050565b7f44435200000000000000000000000000000000000000000000000000000000005f82015250565b5f613823600383612701565b915061382e826137ef565b600382019050919050565b5f61384382613817565b9150819050919050565b7f454e4100000000000000000000000000000000000000000000000000000000005f82015250565b5f613881600383612701565b915061388c8261384d565b600382019050919050565b5f6138a182613875565b9150819050919050565b7f5a454300000000000000000000000000000000000000000000000000000000005f82015250565b5f6138df600383612701565b91506138ea826138ab565b600382019050919050565b5f6138ff826138d3565b9150819050919050565b7f4d4e5400000000000000000000000000000000000000000000000000000000005f82015250565b5f61393d600383612701565b915061394882613909565b600382019050919050565b5f61395d82613931565b9150819050919050565b7f43524f00000000000000000000000000000000000000000000000000000000005f82015250565b5f61399b600383612701565b91506139a682613967565b600382019050919050565b5f6139bb8261398f565b9150819050919050565b7f544f4e00000000000000000000000000000000000000000000000000000000005f82015250565b5f6139f9600383612701565b9150613a04826139c5565b600382019050919050565b5f613a19826139ed565b9150819050919050565b7f48595045000000000000000000000000000000000000000000000000000000005f82015250565b5f613a57600483612701565b9150613a6282613a23565b600482019050919050565b5f613a7782613a4b565b9150819050919050565b7f48424152000000000000000000000000000000000000000000000000000000005f82015250565b5f613ab5600483612701565b9150613ac082613a81565b600482019050919050565b5f613ad582613aa9565b9150819050919050565b7f4b435300000000000000000000000000000000000000000000000000000000005f82015250565b5f613b13600383612701565b9150613b1e82613adf565b600382019050919050565b5f613b3382613b07565b9150819050919050565b7f4f500000000000000000000000000000000000000000000000000000000000005f82015250565b5f613b71600283612701565b9150613b7c82613b3d565b600282019050919050565b5f613b9182613b65565b9150819050919050565b7f4c544300000000000000000000000000000000000000000000000000000000005f82015250565b5f613bcf600383612701565b9150613bda82613b9b565b600382019050919050565b5f613bef82613bc3565b9150819050919050565b7f4d595800000000000000000000000000000000000000000000000000000000005f82015250565b5f613c2d600383612701565b9150613c3882613bf9565b600382019050919050565b5f613c4d82613c21565b9150819050919050565b7f45544800000000000000000000000000000000000000000000000000000000005f82015250565b5f613c8b600383612701565b9150613c9682613c57565b600382019050919050565b5f613cab82613c7f565b9150819050919050565b7f514e5400000000000000000000000000000000000000000000000000000000005f82015250565b5f613ce9600383612701565b9150613cf482613cb5565b600382019050919050565b5f613d0982613cdd565b9150819050919050565b7f55534443000000000000000000000000000000000000000000000000000000005f82015250565b5f613d47600483612701565b9150613d5282613d13565b600482019050919050565b5f613d6782613d3b565b9150819050919050565b7f5649525455414c000000000000000000000000000000000000000000000000005f82015250565b5f613da5600783612701565b9150613db082613d71565b600782019050919050565b5f613dc582613d99565b9150819050919050565b7f46494c00000000000000000000000000000000000000000000000000000000005f82015250565b5f613e03600383612701565b9150613e0e82613dcf565b600382019050919050565b5f613e2382613df7565b9150819050919050565b7f53505800000000000000000000000000000000000000000000000000000000005f82015250565b5f613e61600383612701565b9150613e6c82613e2d565b600382019050919050565b5f613e8182613e55565b9150819050919050565b7f43525600000000000000000000000000000000000000000000000000000000005f82015250565b5f613ebf600383612701565b9150613eca82613e8b565b600382019050919050565b5f613edf82613eb3565b9150819050919050565b7f46455400000000000000000000000000000000000000000000000000000000005f82015250565b5f613f1d600383612701565b9150613f2882613ee9565b600382019050919050565b5f613f3d82613f11565b9150819050919050565b7f50415847000000000000000000000000000000000000000000000000000000005f82015250565b5f613f7b600483612701565b9150613f8682613f47565b600482019050919050565b5f613f9b82613f6f565b9150819050919050565b5f82825260208201905092915050565b7f4e6f7420757064617465720000000000000000000000000000000000000000005f82015250565b5f613fe9600b83613fa5565b9150613ff482613fb5565b602082019050919050565b5f6020820190508181035f83015261401681613fdd565b9050919050565b7f50595553440000000000000000000000000000000000000000000000000000005f82015250565b5f614051600583612701565b915061405c8261401d565b600582019050919050565b5f61407182614045565b9150819050919050565b7f42474200000000000000000000000000000000000000000000000000000000005f82015250565b5f6140af600383612701565b91506140ba8261407b565b600382019050919050565b5f6140cf826140a3565b9150819050919050565b7f54494100000000000000000000000000000000000000000000000000000000005f82015250565b5f61410d600383612701565b9150614118826140d9565b600382019050919050565b5f61412d82614101565b9150819050919050565b7f494f5441000000000000000000000000000000000000000000000000000000005f82015250565b5f61416b600483612701565b915061417682614137565b600482019050919050565b5f61418b8261415f565b9150819050919050565b7f41564158000000000000000000000000000000000000000000000000000000005f82015250565b5f6141c9600483612701565b91506141d482614195565b600482019050919050565b5f6141e9826141bd565b9150819050919050565b7f534b5900000000000000000000000000000000000000000000000000000000005f82015250565b5f614227600383612701565b9150614232826141f3565b600382019050919050565b5f6142478261421b565b9150819050919050565b7f4f4e444f000000000000000000000000000000000000000000000000000000005f82015250565b5f614285600483612701565b915061429082614251565b600482019050919050565b5f6142a582614279565b9150819050919050565b7f5354524b000000000000000000000000000000000000000000000000000000005f82015250565b5f6142e3600483612701565b91506142ee826142af565b600482019050919050565b5f614303826142d7565b9150819050919050565b7f4c656e677468206d69736d6174636800000000000000000000000000000000005f82015250565b5f614341600f83613fa5565b915061434c8261430d565b602082019050919050565b5f6020820190508181035f83015261436e81614335565b9050919050565b7f4e487b71000000000000000000000000000000000000000000000000000000005f52603260045260245ffd5b5f5ffd5b5f5ffd5b5f5ffd5b5f5f833560016020038436030381126143ca576143c96143a2565b5b80840192508235915067ffffffffffffffff8211156143ec576143eb6143a6565b5b602083019250600182023603831315614408576144076143aa565b5b509250929050565b5f61441b8385612701565b9350614428838584612461565b82840190509392505050565b5f614440828486614410565b91508190509392505050565b5f60408201905061445f5f830185612368565b61446c6020830184612368565b9392505050565b7f424f4e4b000000000000000000000000000000000000000000000000000000005f82015250565b5f6144a7600483612701565b91506144b282614473565b600482019050919050565b5f6144c78261449b565b9150819050919050565b7f55534454000000000000000000000000000000000000000000000000000000005f82015250565b5f614505600483612701565b9150614510826144d1565b600482019050919050565b5f614525826144f9565b9150819050919050565b7f41505400000000000000000000000000000000000000000000000000000000005f82015250565b5f614563600383612701565b915061456e8261452f565b600382019050919050565b5f61458382614557565b9150819050919050565b7f47540000000000000000000000000000000000000000000000000000000000005f82015250565b5f6145c1600283612701565b91506145cc8261458d565b600282019050919050565b5f6145e1826145b5565b9150819050919050565b7f464c5200000000000000000000000000000000000000000000000000000000005f82015250565b5f61461f600383612701565b915061462a826145eb565b600382019050919050565b5f61463f82614613565b9150819050919050565b7f4a555000000000000000000000000000000000000000000000000000000000005f82015250565b5f61467d600383612701565b915061468882614649565b600382019050919050565b5f61469d82614671565b9150819050919050565b7f55534465000000000000000000000000000000000000000000000000000000005f82015250565b5f6146db600483612701565b91506146e6826146a7565b600482019050919050565b5f6146fb826146cf565b9150819050919050565b7f58444300000000000000000000000000000000000000000000000000000000005f82015250565b5f614739600383612701565b915061474482614705565b600382019050919050565b5f6147598261472d565b9150819050919050565b7f494e4a00000000000000000000000000000000000000000000000000000000005f82015250565b5f614797600383612701565b91506147a282614763565b600382019050919050565b5f6147b78261478b565b9150819050919050565b7f53454900000000000000000000000000000000000000000000000000000000005f82015250565b5f6147f5600383612701565b9150614800826147c1565b600382019050919050565b5f614815826147e9565b9150819050919050565b7f41535445520000000000000000000000000000000000000000000000000000005f82015250565b5f614853600583612701565b915061485e8261481f565b600582019050919050565b5f61487382614847565b9150819050919050565b7f45544300000000000000000000000000000000000000000000000000000000005f82015250565b5f6148b1600383612701565b91506148bc8261487d565b600382019050919050565b5f6148d1826148a5565b9150819050919050565b7f4c444f00000000000000000000000000000000000000000000000000000000005f82015250565b5f61490f600383612701565b915061491a826148db565b600382019050919050565b5f61492f82614903565b9150819050919050565b7f574c4400000000000000000000000000000000000000000000000000000000005f82015250565b5f61496d600383612701565b915061497882614939565b600382019050919050565b5f61498d82614961565b9150819050919050565b7f44414900000000000000000000000000000000000000000000000000000000005f82015250565b5f6149cb600383612701565b91506149d682614997565b600382019050919050565b5f6149eb826149bf565b9150819050919050565b7f53484942000000000000000000000000000000000000000000000000000000005f82015250565b5f614a29600483612701565b9150614a34826149f5565b600482019050919050565b5f614a4982614a1d565b9150819050919050565b7f50455045000000000000000000000000000000000000000000000000000000005f82015250565b5f614a87600483612701565b9150614a9282614a53565b600482019050919050565b5f614aa782614a7b565b9150819050919050565b7f49435000000000000000000000000000000000000000000000000000000000005f82015250565b5f614ae5600383612701565b9150614af082614ab1565b600382019050919050565b5f614b0582614ad9565b9150819050919050565b7f54454c00000000000000000000000000000000000000000000000000000000005f82015250565b5f614b43600383612701565b9150614b4e82614b0f565b600382019050919050565b5f614b6382614b37565b9150819050919050565b7f41544f4d000000000000000000000000000000000000000000000000000000005f82015250565b5f614ba1600483612701565b9150614bac82614b6d565b600482019050919050565b5f614bc182614b95565b9150819050919050565b7f50454e47550000000000000000000000000000000000000000000000000000005f82015250565b5f614bff600583612701565b9150614c0a82614bcb565b600582019050919050565b5f614c1f82614bf3565b9150819050919050565b7f4c454f00000000000000000000000000000000000000000000000000000000005f82015250565b5f614c5d600383612701565b9150614c6882614c29565b600382019050919050565b5f614c7d82614c51565b9150819050919050565b7f44415348000000000000000000000000000000000000000000000000000000005f82015250565b5f614cbb600483612701565b9150614cc682614c87565b600482019050919050565b5f614cdb82614caf565b9150819050919050565b7f58545a00000000000000000000000000000000000000000000000000000000005f82015250565b5f614d19600383612701565b9150614d2482614ce5565b600382019050919050565b5f614d3982614d0d565b9150819050919050565b7f54525800000000000000000000000000000000000000000000000000000000005f82015250565b5f614d77600383612701565b9150614d8282614d43565b600382019050919050565b5f614d9782614d6b565b915081905091905056fea2646970667358221220c8d883c69a58ebc68f8b121d9286238cf91b4a2b5421f2b729c5c2d69d0725b964736f6c634300081e0033",
    "linkReferences": {}
  },
  "methodIdentifiers": {
    "AAVE()": "48ccda3c",
    "AB()": "375ab083",
    "ADA()": "236e4f23",
    "AERO()": "1691bd6f",
    "ALGO()": "3caf0a9d",
    "APT()": "c67df71c",
    "ARB()": "64a285fd",
    "ASTER()": "d5470494",
    "ATOM()": "f0a5b516",
    "AVAX()": "b59f091e",
    "BCH()": "5fd1af56",
    "BGB()": "a42a3767",
    "BNB()": "58f7f6d2",
    "BONK()": "bfbba317",
    "BTC()": "2792949d",
    "CAKE()": "4ca6ef28",
    "CC()": "6509e776",
    "CRO()": "721361ca",
    "CRV()": "945c9142",
    "DAI()": "e0bab4c4",
    "DASH()": "f614793e",
    "DCR()": "6b23f3e2",
    "DOGE()": "58919155",
    "DOT()": "36e02950",
    "ENA()": "6b71a1b0",
    "ETC()": "d597b634",
    "ETH()": "8322fff2",
    "ETHFI()": "2f6c8333",
    "FDUSD()": "11317c39",
    "FET()": "98a383d7",
    "FIL()": "9255d522",
    "FLOKI()": "2f9f8c13",
    "FLR()": "cdfe919d",
    "GRT()": "00bbe489",
    "GT()": "c7917455",
    "HBAR()": "774256c7",
    "HYPE()": "76e86e72",
    "ICP()": "e6db0f95",
    "IMX()": "34ff503a",
    "INJ()": "d2dcfec1",
    "IOTA()": "b0c5f434",
    "IP()": "18da5649",
    "JUP()": "d07167ef",
    "KAIA()": "4ed415dc",
    "KAS()": "5d37d15a",
    "KCS()": "77802e47",
    "LDO()": "d88bba11",
    "LEO()": "f514bf42",
    "LINK()": "1b6b6d23",
    "LTC()": "7dcc78f8",
    "M()": "693f917e",
    "MNT()": "720099fe",
    "MORPHO()": "3acb5624",
    "MYX()": "82db0484",
    "NEAR()": "32980e43",
    "NEXO()": "3eeddcc2",
    "OKB()": "6275ecd8",
    "ONDO()": "bb2d5b90",
    "OP()": "7c9c3472",
    "PAXG()": "9ca6da2e",
    "PENGU()": "f2030928",
    "PEPE()": "e4fbaecb",
    "PI()": "0a29f40e",
    "POL()": "5f3d1675",
    "PUMP()": "4f2e11fd",
    "PYUSD()": "9e19789d",
    "QNT()": "834d4cd5",
    "RENDER()": "18ac335d",
    "RLUSD()": "68dc7285",
    "SEI()": "d51fdc10",
    "SHIB()": "e24b85e7",
    "SKY()": "b8137ddf",
    "SOL()": "06e46610",
    "SPX()": "93b60eb4",
    "STRK()": "bd227208",
    "STX()": "18ede0bd",
    "SUI()": "126ee0db",
    "TAO()": "16e17852",
    "TEL()": "ee93a545",
    "TIA()": "a5c978c0",
    "TON()": "75383265",
    "TRUMP()": "2d78d8e5",
    "TRX()": "fc2f10b5",
    "UNI()": "541bcb76",
    "USD1()": "44386321",
    "USDC()": "89a30271",
    "USDG()": "57ae3a9f",
    "USDT()": "c54e44eb",
    "USDe()": "d1609502",
    "VET()": "58d6ce96",
    "VIRTUAL()": "8cf552c6",
    "WLD()": "de061d66",
    "WLFI()": "5e787f19",
    "XAUt()": "2f243a3b",
    "XDC()": "d2948fc8",
    "XLM()": "5f59baae",
    "XMR()": "30d29e59",
    "XRP()": "3af2681f",
    "XTZ()": "fc2544c3",
    "ZEC()": "71e30719",
    "lastUpdated(string)": "233af1b0",
    "setUpdater(address)": "9d54f419",
    "supply(string)": "6923a1fd",
    "updateBatch(string[],uint256[])": "bd876461",
    "updater()": "df034cd0"
  },
  "id": 16
}